:0300000002018278
:0C018200787FE4F6D8FD7581330201C9D6
:1005EB000002527E527E02007FBFDFEFF7FBFDFE63
:1005FB003F065B4F666D7D077F6F777C395E797148
:09060B0000FEFDFBF7EFDFBF7FED
:03000600012600D0
:0B079B0012043A12020E12048880F5CE
:10043A0020B1101203E220B107AD267F011206BED9
:10044A0030B1FD20B0101203E220B0077F0112067E
:10045A00618F2630B0FD20B2151203E220B20C05DE
:10046A0026E526D394FF4003E4F52630B2FD20B3F7
:0E047A000C1203E220B303E4F52630B3FD229A
:10048800E4F508E50814600E1460131460142403DE
:100498007016C2A28002D2A2C2A3C2A4800AC2A2BB
:1004A8008002D2A2D2A3C2A4C3740395082421F85F
:1004B800E6F5801203E2E4F5800508E508C3940434
:0204C80040C131
:0104CA00220F
:10020E00E526FB7C037DE8FF7E0012011C74FB2FAC
:10021E00F58274053EF583E493F5217C037DE8AF0A
:10022E00037E0012011CAA04AB057D647C00AF03A3
:10023E00AE0212011C74FB2FF58274053EF583E4A9
:10024E0093F5227D647C00AF03AE0212011CAA045A
:10025E00AB057D0A7C00AF03AE0212011C74FB2FAE
:10026E00F58274053EF583E493F5237D0A7C00AF99
:10027E0003AE0212011C74FB2DF58274053CF5834E
:05028E00E493F52422B9
:10070600758920758DF3758BF3758780D28E7598F4
:0607160050D2ACD2AF226C
:030023000206EFE3
:0706EF00C0D075D000C00768
:0B06F600AF99C2988F993099FDC2990E
:05070100D007D0D0324A
:10075100438901758CFC758A18D2A9D2AFD28C223B
:03000B00020614D6
:04061400C0E0C0D0B2
:10061800758CFC758A180520E5207002051FB4E862
:0E0628000DE51FB40308751F00752000B2A277
:05063600D0D0D0E0323D
:0707BA00D288D2A8D2AF22C1
:0300030002050DE6
:10050D00C0E0C0F0C083C082C0D075D000C000C0B4
:10051D0001C002C003C004C005C006C0071203E23B
:10052D0020B202B2A2D007D006D005D004D003D09D
:10053D0002D001D000D0D0D082D083D0F0D0E03224
:1005BD0075807FE4F52FE52F9005F393F580E52FFA
:1005CD009005EB93FF12063B7F647E001207A6E4B5
:0D05DD00FF12063B052FE52FC3940840D9FF
:0105EA0022EE
:0907B1007F8012063B75807F2257
:10063B00C2B6C2B5E4FEEFC4131313540124FF92E8
:10064B00B4EF25E0FFD2B60000C2B60EBE08E7D26B
:05065B00B50000C2B56E
:010660002277
:1006A400C2A2C2A3C2A4120293E5259005FB93F54E
:0A06B400807F147E001203E680EC44
:10029300E4F53075900FE590640F60757F0A7E007A
:1002A3001203E6E590640F606875900FAF90EF243A
:1002B300F5601024FE601114601324077012E4F536
:1002C30025800D752501800875250280037525039A
:1002D3007590F0AF90EF2450601124E0601124F08A
:1002E300601124707013852525800E7404800674B4
:1002F300088002740C2525F525E530C3943250118E
:10030300E59064F0600B7F0A7E001203E6053080FF
:01031300E801
:0103140022C6
:10000E0020B10F7F0A7E001203E620B10530B1FD4C
:03001E00B2A22269
:0E077F00C2A2C2A3C2A49005FBE493F580229F
:1006D700C2A2C2A3C2A4E4F531E5311203830531F6
:0706E700E531C3941140F25C
:0106EE0022E9
:10031500E4F532E532B40800505A900326F828284F
:100325007302033E02034202034802034E020356D0
:1003350002035E02036602036EC2A28002D2A2C25B
:10034500A3800AC2A2D2A38004D2A2D2A3C2A4804F
:100355001EC2A2C2A3D2A48016D2A2C2A3D2A480D6
:100365000EC2A2D2A3D2A48006D2A2D2A3D2A4E561
:0D037500321203830532E532C3940840962E
:010382002258
:10071C00C2957F0A7E001207A6B2957F0A7E000260
:02072C0007A61E
:10072E00C2A27F647E001203E6B2A27F647E000244
:02073E0003E6D0
:1005870075A0FE7F327E001203E6E4F52DF52EAF4F
:10059700A07801EF08800103D8FDF5A07F147E0045
:1005A7001203E6052EE52E7002052DC39407E52DEF
:0605B700940040DB80CA45
:10054D0078157C007D007BFF7A06790C7E007F0894
:03055D001200F693
:10056000E4F51DF51E7415251EF8E6F5A07F147E32
:10057000001203E6051EE51E7002051DC39408E582
:070580001D940040E080D94A
:100740007533FF8533A07F327E001203E6153380B8
:01075000F2B6
:0A0383009005FB93F5807F017E00DA
:04038D008E278F2800
:10039100E4F52CF52BF52AF529F583F582C3E582E1
:1003A1009528E58395275038E4F52CF52BF52AF5AA
:1003B10029E47FEA7E54FDFCAB2CAA2BA92AA829AB
:1003C100C31201715017E52C2401F52CE4352BF5EE
:1003D1002BE4352AF52AE43529F52980D4A380BDFB
:0103E10022F9
:0403E2007F057E0015
:0403E6008E0F8F10D7
:1003EA00E4F514F513F512F511F583F582C3E582E8
:1003FA009510E583950F5037E4F514F513F512F5CA
:10040A0011E47F7BFEFDFCAB14AA13A912A811C349
:10041A001201715017E5142401F514E43513F5138C
:0F042A00E43512F512E43511F51180D5A380BE2B
:0104390022A0
:0B07A600EF1FAC0670011E4C70F62225
:05078D00120792D2A149
:080792007F017E02DEFEDFFAAA
:01079A00223C
:0F076100D2A012078DC2A0120792C2A102079266
:0F077000C2A012078DD2A0120792C2A102079257
:0204CB00AD077B
:1004CD00E4FBEDC4131313540124FF92A0ED25E0BA
:1004DD00FD12078DC2A11207920BBB08E5D2A01227
:1004ED000792D2A130A0110508E508D394C840F4B5
:0F04FD00C2A11207927F0022C2A11207927F01B3
:01050C0022CC
:10068300E4FDFCD2A1120792EC25E0FCA2A0E43326
:100693004204120792C2A11207920DBD08E5AF04EE
:0106A3002234
:1006BE00AC05AA071207617FA01204CBAF02120489
:0906CE00CBAF041204CB0207704B
:02066100AC07E4
:100663001207617FA01204CBAF041204CB120761FF
:0F0673007FA11204CB120683AD07120770AF05EB
:010682002255
:10018E0002079BE493A3F8E493A34003F68001F2E5
:10019E0008DFF48029E493A3F85407240CC8C33372
:1001AE00C4540F4420C8834004F456800146F6DF41
:1001BE00E4800B0102040810204080900006E47ECB
:1001CE00019360BCA3FF543F30E509541FFEE49336
:1001DE00A360010ECF54C025E060A840B8E493A3FD
:1001EE00FAE493A3F8E493A3C8C582C8CAC583CA28
:1001FE00F0A3C8C582C8CAC583CADFE9DEE780BEE0
:0100090000F6
:10002600E709F608DFFA8046E709F208DFFA803EBC
:1000360088828C83E709F0A3DFFA8032E309F608A9
:10004600DFFA8078E309F208DFFA807088828C8311
:10005600E309F0A3DFFA806489828A83E0A3F608C5
:10006600DFFA805889828A83E0A3F208DFFA804C9F
:1000760080D280FA80C680D4806980F28033801076
:1000860080A680EA809A80A880DA80E280CA8033DF
:1000960089828A83ECFAE493A3C8C582C8CCC58357
:1000A600CCF0A3C8C582C8CCC583CCDFE9DEE78027
:1000B6000D89828A83E493A3F608DFF9ECFAA9F0A6
:1000C600EDFB2289828A83ECFAE0A3C8C582C8CCFC
:1000D600C583CCF0A3C8C582C8CCC583CCDFEADE15
:1000E600E880DB89828A83E493A3F208DFF980CC77
:1000F60088F0EF60010E4E60C388F0ED2402B40470
:100106000050B9F582EB2402B4040050AF23234516
:06011600822390007673C5
:10011C00BC000BBE0029EF8DF084FFADF022E4CCC7
:10012C00F875F008EF2FFFEE33FEEC33FCEE9DEC90
:10013C00984005FCEE9DFE0FD5F0E9E4CEFD22EDD6
:10014C00F8F5F0EE8420D21CFEADF075F008EF2F20
:10015C00FFED33FD4007985006D5F0F222C398FD11
:05016C000FD5F0EA22AE
:10017100EB9FF5F0EA9E42F0E99D42F0E89C45F0E4
:01018100225B
:00000001FF
